:100000000C942A000C943C000C943C000C943C0092
:100010000C943C000C943C000C943C000C943C0070
:100020000C943C000C943C000C943C000C943C0060
:100030000C943C000C943C000C943C000C943C0050
:100040000C943C000C943C000C943C000C943E003E
:100050000C943C0011241FBECFE5D4E0DEBFCDBF21
:1000600020E0A0E6B0E001C01D92AE38B207E1F793
:100070000E9405010C94F6010C9400001F920F924F
:100080000FB60F9211242F933F938F939F938091DC
:100090006000811128C080916200909163000097F8
:1000A00069F020916400309165002817390734F019
:1000B000109263001092620013BE18C098B388E0DB
:1000C000892788BB109260002091610080916400B4
:1000D00090916500820F911D27FD9A959093650080
:1000E0008093640003C08F5F809360009F918F9125
:1000F0003F912F910F900FBE0F901F90189587B3CF
:10010000886087BB83E68CBF8BE083BF82E089BFBA
:100110007894089588B3877F88BB13BE809164006C
:100120009091650010926500109264000895CF933D
:10013000DF930E948A00EC0187B3846087BB88B399
:10014000846088BB81E0809361000E947F00CE01C3
:10015000DF91CF910895CF93DF930E948A00EC0145
:1001600087B3846087BB88B38B7F88BB8FEF809316
:1001700061000E947F00CE01DF91CF910895CF935F
:10018000DF93EC010E948A0087B3846087BB88B349
:10019000846088BB81E080936100D0936300C0934A
:1001A00062000E947F0003C084E08A95F1F780918D
:1001B000620090916300892BB9F70E948A00DF9159
:1001C000CF910895CF93DF93EC010E948A0087B30B
:1001D000846087BB88B38B7F88BB81E0809361009C
:1001E000D0936300C09362000E947F0003C084E04C
:1001F0008A95F1F78091620090916300892BB9F79D
:100200000E948A00DF91CF9108951ABA8FE08BBBCC
:1002100080EF84BB15BA80E090E008C0FC01EE0FCF
:10022000FF1FEA59FF4F1182108201968431910518
:10023000ACF300E010E0C89925C08FE295E7019784
:10024000F1F700C00000C89BFECF8FE295E7019751
:10025000F1F700C000000431110568F40E948A0023
:10026000009749F0F801EE0FFF1FEA59FF4F918305
:1002700080830F5F1F4F0431110520F00E948A0018
:1002800080EF85BBC9992BC08FE295E70197F1F705
:1002900000C00000C99BFECF8FE295E70197F1F700
:1002A00000C000000431110598F40331110519F064
:1002B0000E94970002C00E948A00009749F0F8014E
:1002C000EE0FFF1FEA59FF4F918380830F5F1F4F8F
:1002D0000431110520F00E948A0080EF85BBCA9985
:1002E0002BC08FE295E70197F1F700C00000CA9B91
:1002F000FECF8FE295E70197F1F700C000000431CF
:10030000110598F40331110519F00E94AB0002C0E9
:100310000E948A00009749F0F801EE0FFF1FEA598A
:10032000FF4F918380830F5F1F4F0431110520F031
:100330000E948A0080EF85BBCB997DCF8FE295E745
:100340000197F1F700C00000CB9BFECF8FE295E74D
:100350000197F1F700C0000020E030E080E090E07D
:10036000DC0111C0F901EE0FFF1FEA59FF4F408178
:100370005181052E000C660B770B840F951FA61F6D
:10038000B71F2F5F3F4F2431310564F3181619064C
:100390001A061B061CF40E94E20005C09195819587
:1003A00091090E94BF009FE72FE482E19150204015
:1003B0008040E1F700C00000C0E0D0E013C0FE01C3
:1003C000EE0FFF1FEA59FF4F80819181009749F09E
:1003D0001CF00E94BF0005C09195819591090E9473
:1003E000E2002196C431D10554F325CFF894FFCF14
:00000001FF
