S02B00004D65747A6C65725F4A5F346368656C5F4857455F537465707065725F53636F7065335F30322E737234
S11300000C942A000C9447000C9447000C9447006D
S11300100C9447000C9447000C9447000C94470040
S11300200C9447000C9447000C9447000C94470030
S11300300C9447000C9447000C9447000C94470020
S11300400C9447000C9447000C9447000C944F0206
S11300500C94470011241FBECFE5D4E0DEBFCDBF12
S113006010E0A0E6B0E0E6E5F2E102C005900D92F2
S1130070A43AB107D9F720E0A4EAB0E001C01D9288
S1130080A03BB207E1F70E9434040C9429090C94B4
S1130090000084B38E7F84BB84B38D7F84BB85B31F
S11300A0816085BB85B3826085BB87E080B982E0CF
S11300B081B916BE80E0089583B984E886BF80E0E4
S11300C004C08F5F98E29A95F1F706B607FC02C068
S11300D08431B8F3843158F481B1887F883219F0BF
S11300E0803339F002C080E0089588E0089583E009
S11300F0089582E00895880F83B984E886BF80E07C
S113010004C08F5F98E29A95F1F706B607FC02C027
S11301108431B8F3843158F481B1887F883119F07F
S1130120803239F002C080E0089588E0089583E0C9
S1130130089587E0089584E986BF80E58A95F1F7FC
S113014016BE80E0089584EA86BF80E004C08F5F15
S113015098E29A95F1F706B607FC02C08431B8F329
S1130160843130F481B1887F883021F088E00895AB
S113017083E0089580E00895EF92FF921F93CF9358
S1130180DF939FEF940F933668F5D42F7B01C82F2C
S11301900E94A300882321F00E949B00C1E023C099
S11301A08C2F0E947B00C82F882361F0873099F040
S11301B015C0F701E10FF11D80810E945C00C82F7A
S11301C01F5F02C010E0C0E01D1710F4CC2389F3B8
S11301D00E949B0008C00E949B0005C00E949B00D7
S11301E0C8E001C0C6E08C2FDF91CF911F91FF9032
S11301F0EF9008950F931F93CF93DF931F92CDB782
S1130200DEB790E1899F80011124102F18601983B3
S113021041E0BE016F5F7F4F809160000E94BC008F
S11302200C60098341E0BE016F5F7F4F80916000E5
S11302300E94BC00198341E0BE016F5F7F4F809133
S113024060000E94BC000F90DF91CF911F910F912D
S11302500895EF92FF920F931F93CF93DF931F9212
S1130260CDB7DEB7062F90E1899F700111241E2DB2
S11302701860198341E0BE016F5F7F4F8091600079
S11302800E94BC008E2D8C60898341E0BE016F5FAB
S11302907F4F809160000E94BC00198341E0BE0141
S11302A06F5F7F4F809160000E94BC0080E1089FD7
S11302B080011124102F1860198341E0BE016F5F83
S11302C07F4F809160000E94BC000C60098341E074
S11302D0BE016F5F7F4F809160000E94BC00198354
S11302E041E0BE016F5F7F4F809160000E94BC00BF
S11302F087EB9BE00197F1F700C000000F90DF91BE
S1130300CF911F910F91FF90EF900895682F6F7018
S113031082958F700E942901089583E00E94FA005B
S11303202FE78FE492E1215080409040E1F700C034
S1130330000083E00E94FA008FE59AEE0197F1F73E
S113034000C0000083E00E94FA008FE295E7019765
S1130350F1F700C0000082E00E94FA008FE295E706
S11303600197F1F700C0000068E082E00E942901D3
S113037068E080E00E94290161E080E00E94290198
S113038066E080E00E9429016EE080E00E9429017D
S113039062E080E00E9429010895FF920F931F9369
S11303A0CF93DF931F92CDB7DEB7082F162F896046
S11303B0F82E898341E0BE016F5F7F4F809160001A
S11303C00E94BC000D60098341E0BE016F5F7F4F56
S11303D0809160000E94BC00F98241E0BE016F5F21
S11303E07F4F809160000E94BC00012F0960098347
S11303F041E0BE016F5F7F4F809160000E94BC00AE
S11304001D60198341E0BE016F5F7F4F80916000E2
S11304100E94BC00098341E0BE016F5F7F4F809161
S113042060000E94BC000F90DF91CF911F910F914B
S1130430FF90089590E1899FB0011124807F0E946C
S1130440CD010895EF92FF920F931F93CF93DF9303
S11304507C01C0E0D0E00DC0C031D10519F480ECBE
S11304600E948601F701E00FF11F80810E941A02A9
S11304702196F70101900020E9F73197EE19FF0961
S11304808E01CE17DF0740F3DF91CF911F910F91BB
S1130490FF90EF90089580680E94860108951F924E
S11304A00F920FB60F9211240F931F932F933F9324
S11304B04F935F936F937F938F939F93AF93BF9368
S11304C0EF93FF93CF93DF93CDB7DEB72E97DEBFC5
S11304D0CDBF8091AB009091AC002091AE003091E3
S11304E0AF008217930708F47BC098B388E089278C
S11304F088BB1092AC001092AB00C39B76C02091D5
S1130500AD008091A9009091AA00820F911D27FD52
S11305109A959093AA008093A900892B49F481E0CD
S11305208093AD0081E090E09093AA008093A900AD
S11305304091A9005091AA009A01369527953695C5
S11305402795ABE7B4E10E9430069695879564E65B
S1130550689F9001699F300D112442175307E9F4F5
S11305608091A4008130C9F05F934F9381E690E0BD
S11305709F938F938E010F5F1F4F1F930F930E94C2
S11305803F0680E00E944B02C8010E9422020F90A5
S11305900F900F900F900F900F904091A9005091E1
S11305A0AA009A010024220F331F001C220F331FBC
S11305B0001C232F302DA0E4BAE00E94300620E472
S11305C036E0BC01629FC001639F900D729F900D45
S11305D01124481B590B5093AA004093A90005C04D
S11305E001969093AC008093AB002E960FB6F894CE
S11305F0DEBF0FBECDBFDF91CF91FF91EF91BF91D1
S1130600AF919F918F917F916F915F914F913F91A6
S11306102F911F910F910F900FBE0F901F9018955F
S11306208EE28CBF8CE083BF82E089BF789408950A
S113063013BE88B3877F88BB0895CF92DF92EF9271
S1130640FF920F931F93CF93DF93CDB7DEB72C9711
S11306500FB6F894DEBF0FBECDBFC090A500D090FA
S1130660A600E090A700F090A80020E030E040EA67
S113067050E4C701B6010E942B0618160CF048C0BE
S113068020E030E040EA50E4C701B6010E949C0437
S11306906B017C016093A5007093A6008093A70072
S11306A09093A8009B01AC010E949D049B01AC01A6
S11306B060E070E080E89FE30E940E052FE632E1DF
S11306C043E85AE30E940E050E9487057093AF0029
S11306D06093AE00C701B6010E9480057F936F93BB
S11306E08DE690E09F938F938E010F5F1F4F1F93B2
S11306F00F930E943F0680E40E944B02C8010E94AF
S113070022020F900F900F900F900F900F9012C035
S11307108091AD0081958093AD000E94180398B339
S113072084E0892788BB80E40E944B028CE790E038
S11307300E9422022C960FB6F894DEBF0FBECDBFE6
S1130740DF91CF911F910F91FF90EF90DF90CF90A9
S11307500895CF92DF92EF92FF920F931F93CF935E
S1130760DF93CDB7DEB72C970FB6F894DEBF0FBE7C
S1130770CDBFC090A500D090A600E090A700F09057
S1130780A80020E030E048EC52E4C701B6010E9422
S1130790090588230CF059C020E030E040E251E420
S11307A0C701B6010E940905882314F40E941003AE
S11307B020E030E040EA50E46091A5007091A6008A
S11307C08091A7009091A8000E949D046B017C0178
S11307D06093A5007093A6008093A7009093A8004F
S11307E09B01AC010E949D049B01AC0160E070E0A0
S11307F080E89FE30E940E052FE632E143E85AE3C6
S11308000E940E050E9487057093AF006093AE00AE
S1130810C701B6010E9480057F936F938AE890E038
S11308209F938F938E010F5F1F4F1F930F930E940F
S11308303F0680E40E944B02C8010E9422020F90EE
S11308400F900F900F900F900F902C960FB6F89476
S1130850DEBF0FBECDBFDF91CF911F910F91FF90EF
S1130860EF90DF90CF9008950E9449000E948D017F
S113087081E00E9486018CE00E9486018CE087BBA7
S113088084E088BB1ABA8FE08BBB1092A40081E08D
S11308908093AD001092AA001092A9001092AC00AF
S11308A01092AB0080E090E0A8ECB2E48093A50045
S11308B09093A600A093A700B093A80084E090E0D2
S11308C09093AF008093AE0080E40E944B0288E9CD
S11308D090E00E9422020E941003C89915C081E092
S11308E08093A400C29B03C00E941D0302C00E9407
S11308F0A9032FE789EA93E0215080409040E1F773
S113090000C000001092A400C999E7CF81E0809351
S1130910A400C29B03C00E94A90302C00E941D033D
S11309202FE789EA93E0215080409040E1F700C02E
S113093000001092A400D1CF5058BB27AA270E94D0
S1130940B4040C94F1050E94E30538F00E94EA0512
S113095020F039F49F3F19F426F40C94E0050EF4CA
S1130960E095E7FB0C94DA05E92F0E94020658F3A0
S1130970BA17620773078407950720F079F4A6F580
S11309800C9424060EF4E0950B2EBA2FA02D0B0127
S1130990B90190010C01CA01A0011124FF27591BC0
S11309A099F0593F50F4503E68F11A16F040A22FC6
S11309B0232F342F4427585FF3CF46953795279537
S11309C0A795F0405395C9F77EF41F16BA0B620B36
S11309D0730B840BBAF09150A1F0FF0FBB1F661F7D
S11309E0771F881FC2F70EC0BA0F621F731F841FC0
S11309F048F4879577956795B795F7959E3F08F0E6
S1130A00B0CF9395880F08F09927EE0F97958795A7
S1130A1008950E94B60508F481E008950E94220515
S1130A200C94F1050E94EA0558F00E94E30540F099
S1130A3029F45F3F29F00C94DA0551110C94250632
S1130A400C94E0050E94020668F39923B1F3552340
S1130A5091F3951B550BBB27AA27621773078407CD
S1130A6038F09F5F5F4F220F331F441FAA1FA9F363
S1130A7035D00E2E3AF0E0E832D091505040E69551
S1130A80001CCAF72BD0FE2F29D0660F771F881FB2
S1130A90BB1F261737074807AB07B0E809F0BB0BA5
S1130AA0802DBF01FF2793585F4F3AF09E3F5105B9
S1130AB078F00C94DA050C9425065F3FE4F3983E35
S1130AC0D4F3869577956795B795F7959F5FC9F7A2
S1130AD0880F911D9695879597F90895E1E0660F23
S1130AE0771F881FBB1F621773078407BA0720F09C
S1130AF0621B730B840BBA0BEE1F88F7E095089505
S1130B000E9487056894B1110C94250608950E94EB
S1130B100A0688F09F5798F0B92F9927B751B0F07B
S1130B20E1F0660F771F881F991F1AF0BA95C9F76D
S1130B3014C0B13091F00E942406B1E008950C94E1
S1130B402406672F782F8827B85F39F0B93FCCF394
S1130B50869577956795B395D9F73EF490958095EA
S1130B60709561957F4F8F4F9F4F0895990F00089F
S1130B70550FAA0BE0E8FEEF16161706E807F9076B
S1130B80C0F012161306E407F50798F0621B730B06
S1130B90840B950B39F40A2661F0232B242B252B87
S1130BA021F408950A2609F4A140A6958FEF811D2A
S1130BB0811D089597F99F6780E870E060E00895CB
S1130BC09FEF80EC089500240A9416161706180661
S1130BD00906089500240A9412161306140605063D
S1130BE00895092E0394000C11F4882352F0BB0FCE
S1130BF040F4BF2B11F460FF04C06F5F7F4F8F4F31
S1130C009F4F089557FD9058440F551F59F05F3F6B
S1130C1071F04795880F97FB991F61F09F3F79F01A
S1130C2087950895121613061406551FF2CF46959C
S1130C30F1DF08C0161617061806991FF1CF86951E
S1130C407105610508940895E894BB276627772702
S1130C50CB0197F908950E94B60508F48FEF089523
S1130C60A29FB001B39FC001A39F700D811D1124E9
S1130C70911DB29F700D811D1124911D0895AEE048
S1130C80B0E0E5E4F6E00C9400090D891E8986E0E5
S1130C908C831A8309838FEF9FE79E838D83AE0134
S1130CA0475E5F4F6F89788DCE0101960E94610681
S1130CB0EF81F885E00FF11F10822E96E4E00C948A
S1130CC01C09ABE0B0E0E7E6F6E00C94F2086C0136
S1130CD07B018A01FC0117821682838181FFCCC1CA
S1130CE0CE0101963C01F6019381F70193FD8591B4
S1130CF093FF81917F01882309F4BAC1853239F4C5
S1130D0093FD859193FF81917F01853229F4B6018A
S1130D1090E00E945808E7CF912C212C312CFFE160
S1130D20F315D8F08B3279F038F4803279F08332CD
S1130D30A1F4232D20611DC08D3261F0803369F44C
S1130D40232D216016C0832D8260382EE32DE460AC
S1130D503E2E2AC0F32DF8601DC037FC2DC020EDB7
S1130D60280F2A3040F08E32B9F436FC81C1232D8D
S1130D702064322E19C036FE06C08AE0989E200DEB
S1130D801124922E11C0EAE02E9E200D1124222E51
S1130D90F32DF0623F2E08C08C3621F4832D806839
S1130DA0382E02C0883641F4F70193FD859193FFF4
S1130DB081917F018111B3CF982F9F7D95549330FA
S1130DC028F40C5F1F4F9FE399830DC0833631F0E5
S1130DD0833771F0833509F059C021C0F80180814F
S1130DE089830E5F1F4F88248394912C530113C071
S1130DF02801F2E04F0E511CF801A080B18036FEAC
S1130E0003C0692D70E002C06FEF7FEFC5010E943F
S1130E104D084C018201F32DFF773F2E16C02801A7
S1130E2022E0420E511CF801A080B18036FE03C0BE
S1130E30692D70E002C06FEF7FEFC5010E94420888
S1130E404C01F32DF0683F2E820133FC1BC0822D30
S1130E5090E088169906B0F4B60180E290E00E9412
S1130E6058082A94F4CFF50137FC859137FE819117
S1130E705F01B60190E00E94580821102A9421E0F5
S1130E80821A91088114910471F7E8C0843611F034
S1130E90893641F5F80137FE07C06081718182818E
S1130EA093810C5F1F4F08C060817181072E000C75
S1130EB0880B990B0E5F1F4FF32DFF763F2E97FF84
S1130EC009C090958095709561957F4F8F4F9F4F86
S1130ED0F0683F2E2AE030E0A3010E949408882E97
S1130EE0861845C0853731F4232D2F7EB22E2AE093
S1130EF030E025C0932D997FB92E8F36C1F018F4B8
S1130F00883579F0B5C0803719F0883721F0B0C042
S1130F10E92FE061BE2EB4FE0DC0FB2DF460BF2EA0
S1130F2009C034FE0AC0292F2660B22E06C028E06C
S1130F3030E005C020E130E002C020E132E0F801F9
S1130F40B7FE07C060817181828193810C5F1F4F5E
S1130F5006C06081718180E090E00E5F1F4FA301A5
S1130F600E949408882E8618FB2DFF773F2E36FEAC
S1130F700DC0232D2E7FA22E891458F434FE0BC0ED
S1130F8032FC09C0832D8E7EA82E05C0B82CA32C5C
S1130F9003C0B82C01C0B92CA4FE0FC0FE01E80D9B
S1130FA0F11D8081803321F49A2D997EA92E09C0E8
S1130FB0A2FE06C0B394B39404C08A2D867809F0C7
S1130FC0B394A3FC11C0A0FE06C0B21488F4280C8C
S1130FD0922C9B180EC0B21460F4B60180E290E02B
S1130FE00E945808B394F7CFB21418F42B1802C017
S1130FF0982C212CA4FE10C0B60180E390E00E943E
S11310005808A2FE17C0A1FC03C088E790E002C004
S113101088E590E0B6010CC08A2D867859F0A1FECF
S113102002C08BE201C080E2A7FC8DE2B60190E031
S11310300E945808891438F4B60180E390E00E94B5
S113104058089A94F7CF8A94F301E80DF11D808132
S1131050B60190E00E9458088110F5CF222009F4CF
S113106042CEB60180E290E00E9458082A94F6CF5E
S1131070F6018681978102C08FEF9FEF2B96E2E104
S11310800C940E09FC010590615070400110D8F7D2
S1131090809590958E0F9F1F0895FC0161507040BC
S11310A001900110D8F7809590958E0F9F1F089599
S11310B00F931F93CF93DF93FB01238121FD03C083
S11310C08FEF9FEF2CC022FF16C0468157812481E9
S11310D035814217530744F4A081B1819D012F5FEC
S11310E03F4F318320838C93268137812F5F3F4F7D
S11310F03783268314C08B01EC01FB010084F18546
S1131100E02D0995892BE1F6D80116968D919C91D5
S11311101797019617969C938E931697CE01DF919D
S1131120CF911F910F910895FA01AA27283051F108
S1131130203181F1E8946F936E7F6E5F7F4F8F4F04
S11311409F4FAF4FB1E03ED0B4E03CD0670F781F63
S1131150891F9A1FA11D680F791F8A1F911DA11D48
S11311606A0F711D811D911DA11D20D009F4689481
S11311703F912AE0269F11243019305D3193DEF629
S1131180CF010895462F4770405D4193B3E00FD0DF
S1131190C9F7F6CF462F4F70405D4A3318F0495DCA
S11311A031FD4052419302D0A9F7EACFB4E0A695AD
S11311B09795879577956795BA95C9F700976105CF
S11311C0710508959B01AC010A2E06945795479525
S11311D037952795BA95C9F7620F731F841F951F1A
S11311E0A01D08952F923F924F925F926F927F922B
S11311F08F929F92AF92BF92CF92DF92EF92FF9223
S11312000F931F93CF93DF93CDB7DEB7CA1BDB0BCE
S11312100FB6F894DEBF0FBECDBF09942A88398873
S113122048885F846E847D848C849B84AA84B9847A
S1131230C884DF80EE80FD800C811B81AA81B98186
S1131240CE0FD11D0FB6F894DEBF0FBECDBFED019A
S10912500895F894FFCF9D
S113125627537465703A2025642020200046726561
S1131266713A202564487A20202020004672657150
S11312763A2030487A2020202000467265713A20B0
S11312862564487A20202000467265713A20313060
S107129630487A005E
S9030000FC
