:100000000C942A000C943C000C943C000C943C0092
:100010000C943C000C943C000C943C000C943C0070
:100020000C943C000C943C000C943C000C943C0060
:100030000C943C000C943C000C943C000C943C0050
:100040000C943C000C943C000C943C000C943E003E
:100050000C943C0011241FBECFE5D4E0DEBFCDBF21
:1000600020E0A0E6B0E001C01D92A236B207E1F7A1
:100070000E946F000C9472000C9400001F920F926B
:100080000FB60F9211248F939F93809160009091EF
:1000900061008436910549F498B388E0892788BBCC
:1000A000109261001092600005C00196909361006B
:1000B000809360009F918F910F900FBE0F901F90C3
:1000C000189587B3886087BB8BE38CBF89E083BFBB
:1000D00082E089BF789408950E94610008950E948B
:0800E0006C00FFCFF894FFCF84
:00000001FF
